:020000040800F2
:10000000180400209D010008A5010008A7010008B0
:10001000A9010008AB010008AD01000800000000C4
:10002000000000000000000000000000AF01000818
:10003000B101000800000000B30100087B0D0008BA
:10004000B7010008B7010008B7010008B7010008B0
:10005000B7010008B7010008B7010008B7010008A0
:10006000B7010008B7010008B7010008B701000890
:10007000B7010008B7010008B7010008B701000880
:10008000B7010008B7010008B7010008B701000870
:10009000B7010008B7010008B7010008B701000860
:1000A000B7010008B7010008B7010008B701000850
:1000B000B7010008B7010008B7010008B701000840
:1000C000B7010008B7010008B7010008B701000830
:1000D000B7010008B7010008B7010008B701000820
:1000E000B7010008B7010008B7010008B701000810
:1000F000B7010008B7010008B7010008B701000800
:10010000B7010008B7010008B7010008B7010008EF
:10011000B7010008B7010008B7010008B7010008DF
:10012000B7010008B7010008B7010008B7010008CF
:10013000B7010008B7010008B7010008B7010008BF
:10014000B7010008B7010008B7010008B7010008AF
:10015000B7010008B7010008B7010008B70100089F
:10016000B7010008B7010008B7010008B70100088F
:10017000B7010008B7010008B7010008000000003F
:10018000B7010008B7010008DFF80CD000F04CF907
:1001900000480047710E00081804002006488047F8
:1001A00006480047FEE7FEE7FEE7FEE7FEE7FEE75C
:1001B000FEE7FEE7FEE7FEE7E90D0008890100081B
:1001C0002DE9FE4F81EA030404F0004421F00041D0
:1001D00000944FF0000B23F0004350EA01045ED07E
:1001E00052EA03045BD0C3F30A54C1F30A552C440A
:1001F000A4F2F3340194A0FB0254C1F3130141F4BF
:100200008011C3F3130343F4801301FB024400FB8A
:10021000034E840A970A44EA815447EA8357A4FBB1
:10022000076802958D0A05FB07854FEA932C04FBAE
:100230000C542705029D4FEA065847EA1637B5EBDE
:1002400008056EEB070C870E920E47EA811742EA0B
:100250008312A7FB0201B6EB0B0164EB00042B0D2C
:1002600043EA0C335E1844EB1C50DA465146E7FB78
:100270000201C5F313044FEA0B3343EA14534FEA68
:100280000432019C43EA0603A4F10C040294009C8E
:10029000CDE900B400F079F803B0BDE8F08F00209C
:1002A0000146F9E70EB5C10F80EAE0700844CA07BD
:1002B000002140F233438DE80E000A460B4600F061
:1002C00064F803B000BD01F0004330B421F00041F8
:1002D00050EA010206D00A0DA2F56072C1F31301C3
:1002E000002A02DC30BC00207047440F44EAC104FD
:1002F000C100E01830BC00EBC250AFF30080002911
:10030000A8BF7047401C490008BF20F0010070479B
:1003100010B4B0FA80FC00FA0CF050EA010404BFFB
:1003200010BC704749B1CCF1200421FA04F411FA51
:100330000CF118BF012121430843A3EB0C01CB1D95
:100340004FEA00614FEA102042BF002010BC704706
:1003500000EBC35010440029A4BF10BC7047401CE0
:10036000490008BF20F0010010BC704710B5141EF2
:1003700073F1000408DA401C41F1000192185B415E
:100380001A4301D120F0010010BD2DE9F04D924635
:100390009B4611B1B1FA81F202E0B0FA80F220324C
:1003A000904600F053F804460F4640EA0A0041EA3E
:1003B0000B0153465A46084313D0114653EA010035
:1003C00019D0C8F14002504600F04FF805460E46DD
:1003D00050465946424600F039F8084305D00120FE
:1003E00004E020463946BDE8F08D0020054346EA8A
:1003F000E0762C4337430A986305E40AA0EB080033
:100400000022FD0A44EA47540A3002D50020014682
:10041000E9E7010510196941DDE90845001969415D
:10042000BDE8F04DA2E70000064C074D06E0E0688D
:1004300040F0010394E8070098471034AC42F6D32B
:10044000FFF7A6FE140F0008340F0008202A04DB73
:10045000203A00FA02F1002070479140C2F12003D7
:1004600020FA03F3194390407047202A04DB203A16
:1004700021FA02F00021704721FA02F3D040C2F1C4
:1004800020029140084319467047000010B52DED39
:10049000028B00F09FF800F051F8CC2000F0B6F885
:1004A000442000F0B3F800F095F800F047F8CC20B5
:1004B00000F0ACF8BE2000F0A9F800F077F80E4C80
:1004C000607000F073F820700002617800B2084399
:1004D0009FED0A8B608001D5C043401CFFF7E2FE10
:1004E00053EC182BFFF76CFEFFF7EDFEA06000EE5B
:1004F000100ABDEC028B10BD0000002000000000BF
:100500000000B03F0B4800B5016887B041F0020120
:1005100001600068694600F00200059040200090EC
:1005200001200190029003200390034800F09EF800
:1005300007B000BD303802400004024030B585B03D
:100540000024022000F089FC402000900020164D7D
:1005500001906946284600F089F804E0641CE4B282
:10056000012000F07AFC4021284600F05FF910B12C
:10057000642CF3D30FE0642C0DD2002404E0641C3F
:10058000E4B2012000F069FC4021284600F04EF959
:1005900020B1F02C05D3012005B030BDF02CEED3F6
:1005A000F9E70020F8E700000004024070B50025DC
:1005B000074E2C464021304600F038F9A040284331
:1005C000641CE4B2C5B2082CF4D3284670BD000008
:1005D0000004024010B5FFF795FF0F2000F03DFC2E
:1005E000094C00224021204600F025F940F2EE207F
:1005F00000F033FC01224021204600F01CF9BDE848
:1006000010400F2000F029BC0004024070B50546E0
:10061000FFF778FF144E002415F0010F4FEA55053F
:100620004FF000024FF0400130460BD000F003F9CC
:10063000082000F012FC01224021304600F0FBF8B7
:100640003A200AE000F0F7F8462000F006FC01220C
:100650004021304600F0EFF8022000F0FEFB641C61
:10066000E4B2082CD8D370BD000402402DE9F84F45
:10067000DFF888B100224FF001084FF0030A4FF075
:100680000F090BF1040E00BF0B6808FA02F42340B7
:10069000A3426ED14D68022D01D0122D0ED1D50886
:1006A00000EB850CDCF820505607F70E09FA07F628
:1006B000B5430E69BE402E43CCF820600668550055
:1006C0000F790AFA05FC07F0030726EA0C06AF408B
:1006D000374307604E68012E05D0022E03D0112E3D
:1006E00001D0122E0ED18668CF6826EA0C06AF40E4
:1006F000374387604668A6430C79C4F300149440DE
:1007000034434460C4688E6824EA0C04AE40264337
:10071000C6604C68E4006AD5394C256845F48045CC
:100720002560246822F0030504F480440094354CCD
:100730002E19D6F8084895072F0F09FA07F5AC438C
:10074000314DA84201D1002529E0304DA84201D108
:10075000012524E02E4DA84201D102251FE02D4D98
:10076000A84201D103251AE02B4DA84202D104254D
:1007700015E03CE0294DA84201D105250FE0284DA8
:10078000A84201D106250AE0264DA84201D107253D
:1007900005E0254DA84201D1082500E00925BD400E
:1007A0002543C6F80858DBF800405D464E689C4378
:1007B000F60300D51C432C60DEF8004075464E68F9
:1007C0009C43B60300D51C432C600C4D08352C68A7
:1007D0004E689C43F60200D51C432C60074D0C3537
:1007E0002C684E689C43B60200D51C432C60521CFA
:1007F000102AFFF449AFBDE8F88F0000003C01402B
:100800004438024000300140000002400004024031
:1008100000080240000C0240001002400014024098
:1008200000180240001C02400020024000690840FD
:1008300000D0012070470AB1816170470904FBE7CD
:10084000014800687047000010000020024801685D
:10085000491C016070470000100000200B4810B5D3
:10086000016841F400710160016841F48061016038
:10087000016841F480710160032000F045F8002018
:1008800000F006F800F015F8002010BD003C024012
:1008900010B5044600F04AF84FF47A71B0FBF1F05D
:1008A00000F043FA00222146501E00F00DF800200F
:1008B00010BD10B5032000F027F80022BDE810405D
:1008C0001146501EAFF30080F0B40E4B1B680C466F
:1008D000C3F30223C3F10705042D00D90425191D14
:1008E000072901D2002300E0DB1E012606FA05F1EC
:1008F000491E214099409E40761E16403143F0BC6F
:1009000000F02BBA0CED00E0064900F00702086881
:100910004FF6FF03184040EA0220034A10430860E4
:10092000704700000CED00E00000FA0510B500F083
:1009300017F808490968F02292FAA2F201F0F001D2
:10094000B2FA82F2D140044A515CC84003490860BF
:1009500010BD000008380240040F00080C00002001
:1009600030B51948006810F00C01184812D0184C26
:1009700004290ED008290DD11349091F0A6802F075
:100980003F030A68550247F6C07204D5B4FBF3F082
:1009900003E0204630BDB0FBF3F00B68096813405C
:1009A00092FAA2F2B2FA82F2D34058434FF44032A4
:1009B00092FAA2F201F44031B2FA82F2D140491C1B
:1009C0004900B0FBF1F030BD083802400024F400CB
:1009D00040787D012DE9F84F04460078DFF81CA32C
:1009E000C74DC0074FF000064BD0DAF80010504654
:1009F000C1F38101012908D00068C0F381000228F9
:100A00000AD1281D0068400206D52868800338D521
:100A10006068002871D034E0DFF8E49209F102093F
:100A200089F80060FFF70CFF804641F2883705E047
:100A3000FFF706FFA0EB0800B8427DD828688003C6
:100A4000F6D4207989F80000606868B1FFF7F8FEF5
:100A5000804605E0FFF7F4FEA0EB0800B842ECD8B2
:100A600028688003F6D50CE0FFF7EAFE804605E033
:100A7000FFF7E6FEA0EB0800B842DED82868800346
:100A8000F6D420789F4F80074FF0010B45D5DAF858
:100A90000010504611F00C0F4FF0F80909D0006813
:100AA000C0F3810002280BD19448001F0068400267
:100AB00006D42868800714D5E06801281DD110E00D
:100AC000E068D8B1C7F800B0FFF7BAFE804605E08D
:100AD000FFF7B6FEA0EB08006428AED828688007B0
:100AE000F6D5286899FAA9F22169B2FA82F220F0C3
:100AF000F8009140084328600FE0FCE03E60FFF7FB
:100B00009FFE804606E000BFFFF79AFEA0EB0800BC
:100B1000642811D828688007F6D42078000729D5E2
:100B2000DFF8D8917848616909F16C0999B1C0F88A
:100B300000B0FFF785FE00E086E0804606E000BFDB
:100B4000FFF77EFEA0EB080064287DD8D9F80000EE
:100B50008007F5D50EE00660FFF772FE804605E0DF
:100B6000FFF76EFEA0EB080064286DD8D9F80000EE
:100B70008007F5D4207840075AD56048383001689E
:100B800041F0805101600068DFF8809100F08050F2
:100B90000090D9F8001041F48071C9F80010FFF7F7
:100BA0004FFE804606E000BFFFF74AFEA0EB0800BC
:100BB000642849D8D9F80000C005F5D5DFF83C8194
:100BC00008F1680888F80060FFF73AFE41F28839BA
:100BD000009005E0FFF734FE0099411A494533D8EB
:100BE000D8F800008007F5D4207A88F80000A068C3
:100BF00078B1FFF725FE009006E000BFFFF720FE6A
:100C00000099411A49456ED8D8F800008007F5D5FB
:100C10000EE0FFF715FE009006E000BFFFF710FEA4
:100C20000099411A49455ED8D8F800008007F5D4EC
:100C3000A069E8B3DAF80010C1F3810102295AD0A3
:100C400002283E6605D000E04DE0FFF7F9FD0446BE
:100C50004CE0FFF7F5FD064605E000BFFFF7F0FDAD
:100C6000801B64283FD828688001F7D4D4E90701A5
:100C7000084347F6C07292FAA2F2616AB2FA82F2AF
:100C80009140A26A4FF0FF3303EB52024FF440331E
:100C900093FAA3F3B3FA83F39A40114308434FF056
:100CA000706292FAA2F2E16AB2FA82F2914000E036
:100CB0001FE008431149091F0860C7F860B0FFF73B
:100CC000BFFD044605E000BFFFF7BAFD001B642826
:100CD00009D828688001F7D50BE000BFFFF7B0FD09
:100CE000001B642802D90320BDE8F88F2868800122
:100CF000F4D40020F8E70120F6E7000008380240AD
:100D00000038024000004742800E47420070004019
:100D10004FF0E0210428086903D020F004000861A6
:100D2000704740F00400FAE7704710B5401EB0F17C
:100D3000807F01D3012010BD4FF0E02460610F21BE
:100D4000601700F00AF80020A06107202061002051
:100D500010BD10B5FFF7E8FF10BD0907090E002808
:100D600006DA00F00F0000F1E02080F8141D704753
:100D700000F1E02080F80014704710B5FFF766FD21
:100D8000BDE81040FFF7E5BF154800B501688DB01C
:100D900041F080510160006800F080500C901148D3
:100DA000016821F480410160006800F480400C90EB
:100DB0000220009001200390102004900020069053
:100DC0006846FFF707FEFFF7B1FD4FF47A71B0FBFD
:100DD000F1F0FFF7AAFF0420FFF79AFF0DB000BD66
:100DE00040380240007000401048016841F4700132
:100DF00001600F48016841F0010101600C4A0021C7
:100E00000832116002680B4B1A400260031D0A4A47
:100E10001A60026822F48022026005480C300160EA
:100E200002495806803908607047000088ED00E0EC
:100E300000380240FFFFF6FE1030002402E008C830
:100E4000121F08C1002AFAD170477047002001E044
:100E500001C1121F002AFBD17047062100E000BF2C
:100E6000491E89B2FBD2401E0004000CF5D1704728
:100E700086B0FFF7F3FCFFF787FF1F48016841F0DA
:100E80001001016000681D4C00F01000059020204A
:100E900000900120019002900320039069462046B3
:100EA000FFF7E4FB012220212046FFF7C4FC144D8C
:100EB0004FEA0406FFF78EFBFFF740FBB0B10122BB
:100EC00020213046FFF7B7FCC824FA20FFF7C5FF02
:100ED000FA20FFF7C2FFFA20FFF7BFFFFA20FFF763
:100EE000BCFF641E2404240CEFD1E3E7FFF7CEFA25
:100EF00085ED010A0022E3E730380240001002408D
:100F000000000020000000000102030401020304AD
:100F100006070809340F0008000000201400000034
:100F20003C0E0008480F00081400002004040000D4
:100F30004C0E00080000000000000000000000004F
:080F40000024F4000000000091
:040000050800018965
:00000001FF
