:1004BD003F065B4F666D7D077F6F777C395E797187
:0A04CD00BF86DBCFE6EDFD87FFEFF1
:07050300AE071FEE70FA22A3
:06043A00C2A77F037E0053
:10044000D3EF9400EE940040147D737C00ED1D709A
:0D045000011CED4C70F7EF1F70E61E80E3FD
:01045D00227C
:04032300AB07AA0674
:100327007C007D641202C08F087C007D64AF03AE41
:10033700021202C07E007F0ACFCDCFCECCCE1202F2
:10034700C08F09AE02AF037C007D641202C07E003D
:100357007F0ACFCDCFCECCCE1202C0AB05D2A6E559
:10036700089004BD93F580C2A67580FFD2A775805B
:10037700FE12043AD2A6E5099004CD93F580C2A6F1
:100387007580FFD2A77580FD12043AD2A6AF03EF9E
:100397009004BD93F580C2A67580FFD2A77580FB38
:0903A700C2A77F037E000204409E
:10045E00D2A200C2A27F50120503D2A27F051205BE
:10046E000320A204D2008002C2007F14120503D220
:02047E00A222B8
:1004D700C2A20000D2A200A2A292017F0C120503C1
:0204E700A20170
:0104E90022F0
:1004A200E4FC1204D7E433FFC43333335480FEED4B
:0A04B200C3134EFD0CBC08EAAF05B1
:0104BC00221D
:02048000AD07C6
:10048200E4FCED54016006C2A27F018004C2A27F97
:0F0492000B120503D2A200EDC313FD0CBC08E34F
:0104A1002238
:0D04EA0012045E7FCC1204807F4402048067
:1003B00012045E7FCC1204807FBE1204801204A25D
:1003C000AB071204A2750C008F0DE50D750D00F53D
:1003D0000CAF03EF420DE4AC0CAD0D120206E4FBD2
:1003E000FA7980783D1200FB8F0B8E0A8D098C08FC
:1003F000E4FFFE7D207C41AB0BAA0AA909A80812E4
:1004000000FBE4FBFAF9783F12000A12023F8E0C5F
:020410008F0D4E
:0104120022C7
:100413001204EA7FE87E031204401203B01203239E
:100423001204EA1203B0D3EF945EEE94014004C2C7
:07043300A380E7D2A380E3E0
:100003000202ABE86480F8E933E83360110460F07E
:10001300ED33EC337009E8FCE9FDEAFEEBFF220463
:1000230060DED3EB9FEA9EE99DE8C2E78CF0C2F75E
:1000330095F0400CE8CCF8E9CDF9EACEFAEBCFFB2A
:1000430012027685D0F05804700320D5B3E804700B
:10005300075002B2D50202B592D5EC0460F7E4CCA6
:10006300C0E0C398F8603B94186008400DD0E0FBF3
:1000730002028DE4FBFAC9FC8028E830E406E4C9F7
:10008300FBE4CAFCE830E305E4C9CACBFCE8540747
:100093006010F8C3E913F9EA13FAEB13FBEC13FC52
:1000A300D8F130F52FC3E49CFCEF9BFFEE9AFEEDF5
:1000B30099FDD0E0FBEF4E4D4C701222DB030202A0
:1000C300B2EC2CFCEF33FFEE33FEED33FDED30E706
:1000D300EB02028DEF2BFFEE3AFEED39FDD0E0FB94
:1000E30050130BBB00030202B5ED13FDEE13FEEF3D
:0800F30013FFEC13FC02028D67
:1000FB00EC4D6011E8497017ED33EC3304600DE4FF
:10010B00FCFFFEFD22E933E8330470F80202AB1268
:10011B00027658046009E4CC248150062850090269
:10012B0002B52840030202B2C0E0EB4A7044B9802A
:10013B0006D0E0FB0202A1EF4E701CBD8008EBFF66
:10014B00EAFEE9FD80EBE98DF0A4FEE5F00201E4A7
:10015B00E9CDF9EAFEEBFFEF89F0A4FCE5F0CE89DF
:10016B00F0A42EFFE435F0CD89F0A42DFEE435F09C
:10017B008067EF4E7005BD80D780C3EF8BF0A4ACCA
:10018B00F0EE8BF0A42CFCE435F0F8EF8AF0A42C05
:10019B00E5F038FCE433CB8DF0A42CFCE5F03BF818
:1001AB00EE8AF0A42CFCE5F038F8E433CF89F0A408
:1001BB002CFCE5F038CF3400CE89F0A42FFFE5F00E
:1001CB003EFEE433C98DF0A42EFEE5F039CD8AF066
:1001DB00A42FFFE5F03EFEE43DFD33D0E0FB5007DE
:1001EB000BBB000F0202B5EC2CFCEF33FFEE33FE22
:0601FB00ED33FD02028D50
:1002010075F020800E75F010800575F0087D007E78
:10021100007F003392D530D503120315EC33401023
:10022100EF33FFEE33FEED33FDEC33FCD5F0ED2281
:0E023100E5F0247EA2D513CC92E7CDCEFF22BD
:10023F00EDD2E7CD33EC3392D524814006E4FFFEB7
:10024F00FDFC22FCE4CFCECDCC24E0501174FF8016
:10025F00EDC3CC13CCCD13CDCE13CECF13CF0470B3
:07026F00F030D5DE0203159B
:10027600E9D2E7C933E833F892D5EDD2E7CD33ECCE
:0702860033FC5002B2D52247
:10028D00EC30E7100FBF000C0EBE00080DBD0004D2
:10029D000BEB6014A2D5EB13FCED92E7FD2274FF7E
:1002AD00FCFDFEFF22E480F8A2D574FF13FC7D80D7
:0302BD00E480EFEB
:030000000204F700
:0C04F700787FE4F6D8FD75812002041324
:1002C000BC000BBE0029EF8DF084FFADF022E4CC22
:1002D000F875F008EF2FFFEE33FEEC33FCEE9DECEB
:1002E000984005FCEE9DFE0FD5F0E9E4CEFD22ED31
:1002F000F8F5F0EE8420D21CFEADF075F008EF2F7B
:10030000FFED33FD4007985006D5F0F222C398FD6B
:050310000FD5F0EA2208
:0E031500C3E49FFFE49EFEE49DFDE49CFC22F9
:00000001FF
