:020000040800F2
:10000000100400209D010008A5010008A7010008B8
:10001000A9010008AB010008AD01000800000000C4
:10002000000000000000000000000000AF01000818
:10003000B101000800000000B301000889100008A9
:10004000B7010008B7010008B7010008B7010008B0
:10005000B7010008B7010008B7010008B7010008A0
:10006000B7010008B7010008B7010008B701000890
:10007000B7010008B7010008B7010008B701000880
:10008000B7010008B7010008B7010008B701000870
:10009000B7010008B7010008B7010008B701000860
:1000A000B7010008B7010008B7010008B701000850
:1000B000B7010008B7010008B7010008B701000840
:1000C000B7010008B7010008B7010008B701000830
:1000D000B7010008B7010008B7010008B701000820
:1000E000B7010008B7010008B7010008B701000810
:1000F000B7010008B7010008B7010008B701000800
:10010000B7010008B7010008B7010008B7010008EF
:10011000B7010008B7010008B7010008B7010008DF
:10012000B7010008B7010008B7010008B7010008CF
:10013000B7010008B7010008B7010008B7010008BF
:10014000B7010008B7010008B7010008B7010008AF
:10015000B7010008B7010008B7010008B70100089F
:10016000B7010008B7010008B7010008B70100088F
:10017000B7010008B7010008B7010008000000003F
:10018000B7010008B7010008DFF80CD000F04CF907
:1001900000480047D111000810040020064880479D
:1001A00006480047FEE7FEE7FEE7FEE7FEE7FEE75C
:1001B000FEE7FEE7FEE7FEE72111000889010008DF
:1001C0002DE9FE4F81EA030404F0004421F00041D0
:1001D00000944FF0000B23F0004350EA01045ED07E
:1001E00052EA03045BD0C3F30A54C1F30A552C440A
:1001F000A4F2F3340194A0FB0254C1F3130141F4BF
:100200008011C3F3130343F4801301FB024400FB8A
:10021000034E840A970A44EA815447EA8357A4FBB1
:10022000076802958D0A05FB07854FEA932C04FBAE
:100230000C542705029D4FEA065847EA1637B5EBDE
:1002400008056EEB070C870E920E47EA811742EA0B
:100250008312A7FB0201B6EB0B0164EB00042B0D2C
:1002600043EA0C335E1844EB1C50DA465146E7FB78
:100270000201C5F313044FEA0B3343EA14534FEA68
:100280000432019C43EA0603A4F10C040294009C8E
:10029000CDE900B400F079F803B0BDE8F08F00209C
:1002A0000146F9E70EB5C10F80EAE0700844CA07BD
:1002B000002140F233438DE80E000A460B4600F061
:1002C00064F803B000BD01F0004330B421F00041F8
:1002D00050EA010206D00A0DA2F56072C1F31301C3
:1002E000002A02DC30BC00207047440F44EAC104FD
:1002F000C100E01830BC00EBC250AFF30080002911
:10030000A8BF7047401C490008BF20F0010070479B
:1003100010B4B0FA80FC00FA0CF050EA010404BFFB
:1003200010BC704749B1CCF1200421FA04F411FA51
:100330000CF118BF012121430843A3EB0C01CB1D95
:100340004FEA00614FEA102042BF002010BC704706
:1003500000EBC35010440029A4BF10BC7047401CE0
:10036000490008BF20F0010010BC704710B5141EF2
:1003700073F1000408DA401C41F1000192185B415E
:100380001A4301D120F0010010BD2DE9F04D924635
:100390009B4611B1B1FA81F202E0B0FA80F220324C
:1003A000904600F053F804460F4640EA0A0041EA3E
:1003B0000B0153465A46084313D0114653EA010035
:1003C00019D0C8F14002504600F04FF805460E46DD
:1003D00050465946424600F039F8084305D00120FE
:1003E00004E020463946BDE8F08D0020054346EA8A
:1003F000E0762C4337430A986305E40AA0EB080033
:100400000022FD0A44EA47540A3002D50020014682
:10041000E9E7010510196941DDE90845001969415D
:10042000BDE8F04DA2E70000064C074D06E0E0688D
:1004300040F0010394E8070098471034AC42F6D32B
:10044000FFF7A6FE3412000854120008202A04DB2D
:10045000203A00FA02F1002070479140C2F12003D7
:1004600020FA03F3194390407047202A04DB203A16
:1004700021FA02F00021704721FA02F3D040C2F1C4
:1004800020029140084319467047000030B58BB0F8
:1004900040200024CDE900040220084D0290694666
:1004A000284600F035F98020CDE9050401200790A9
:1004B00005A9284600F02CF90BB030BD000402401D
:1004C0002DE9F0412DED028B00F0D8F800F082F814
:1004D000CC2000F0EDF8442000F0EAF8C82000F04D
:1004E00058FE00F0CBF800F075F8CC2000F0E0F8F2
:1004F000BE2000F0DDF800F099F8054600F096F80F
:10050000000204B22C43224E04254FF001084FF4A0
:10051000FA6700BF08FA05F020424FF000024FF0E2
:100520002001304603D000F0D8F9002202E000F0AC
:10053000D4F901224021304600F0CFF9384600F0CE
:1005400028FE01222021304600F0C7F90122402177
:10055000304600F0C2F9384600F01BFE6D1C0C2D31
:10056000D8DB002C9FED0B8B02DAE043401C00E04F
:100570002046FFF797FE53EC182BFFF721FEFFF7FD
:10058000A2FEBDEC028B00EE100ABDE8F081000077
:1005900000100240000000000000B03F0B4800B512
:1005A000016887B041F0020101600068694600F00F
:1005B000020005904020009001200190029003204D
:1005C0000390034800F0A4F807B000BD30380240A3
:1005D0000004024070B50024FFF758FF124D04E0FC
:1005E000641CE4B2012000F0E7FD4021284600F041
:1005F0006FF910B1642CF3D30FE0642C0DD20024FA
:1006000004E0641CE4B2012000F0D6FD402128463D
:1006100000F05EF918B1F02C04D3012070BDF02C6D
:10062000EFD3FAE7002070BD000402402DE9F0414D
:1006300000252C46104F0126FFF7B0FF0022402175
:10064000384600F04AF90A2000F0B6FDFFF71EFF19
:100650004021384600F03CF918B106FA04F028436E
:10066000C5B22D2000F0A8FD641CE4B2082CE3D331
:100670002846BDE8F08100000004024010B5FFF7F5
:100680008DFF0A4C00224021204600F026F940F25E
:10069000EE2000F091FD01224021204600F01DF9DE
:1006A000BDE810400F2000F087BD000000040240AC
:1006B00070B50546FFF772FF144E002415F0010FC8
:1006C0004FEA55054FF000024FF0400130460BD085
:1006D00000F003F9082000F06FFD012240213046B0
:1006E00000F0FBF83C200AE000F0F7F8462000F0AC
:1006F00063FD01224021304600F0EFF8022000F0B7
:100700005BFD641CE4B2082CD8D370BD0004024029
:100710002DE9F84FDFF888B100224FF001084FF0C3
:10072000030A4FF00F090BF1040E00BF0B6808FA23
:1007300002F42340A3426ED14D68022D01D0122D48
:100740000ED1D50800EB850CDCF820505607F70ECB
:1007500009FA07F6B5430E69BE402E43CCF8206077
:10076000066855000F790AFA05FC07F0030726EA28
:100770000C06AF40374307604E68012E05D0022EAD
:1007800003D0112E01D0122E0ED18668CF6826EA32
:100790000C06AF40374387604668A6430C79C4F324
:1007A0000014944034434460C4688E6824EA0C0406
:1007B000AE402643C6604C68E4006AD5394C2568D3
:1007C00045F480452560246822F0030504F4804444
:1007D0000094354C2E19D6F8084895072F0F09FAC2
:1007E00007F5AC43314DA84201D1002529E0304D39
:1007F000A84201D1012524E02E4DA84201D10225B5
:100800001FE02D4DA84201D103251AE02B4DA8422F
:1008100002D1042515E03CE0294DA84201D105256F
:100820000FE0284DA84201D106250AE0264DA84236
:1008300001D1072505E0254DA84201D1082500E09A
:100840000925BD402543C6F80858DBF800405D4641
:100850004E689C43F60300D51C432C60DEF8004034
:1008600075464E689C43B60300D51C432C600C4D66
:1008700008352C684E689C43F60200D51C432C605A
:10088000074D0C352C684E689C43B60200D51C43BE
:100890002C60521C102AFFF449AFBDE8F88F00000D
:1008A000003C01404438024000300140000002405A
:1008B0000004024000080240000C02400010024008
:1008C0000014024000180240001C024000200240B8
:1008D0000069084000D0012070470AB1816170476B
:1008E0000904FBE701480068704700000800002089
:1008F00002480168491C01607047000008000020A0
:100900000B4810B5016841F400710160016841F4C1
:1009100080610160016841F480710160032000F092
:1009200045F8002000F006F800F015F8002010BD92
:10093000003C024010B5044600F050F94FF47A71C3
:10094000B0FBF1F000F049FB00222146501E00F000
:100950000DF8002010BD10B5032000F027F800228C
:10096000BDE810401146501EAFF30080F0B40E4BAE
:100970001B680C46C3F30223C3F10705042D00D9FD
:100980000425191D072901D2002300E0DB1E0126E2
:1009900006FA05F1491E214099409E40761E1640F8
:1009A0003143F0BC00F060BB0CED00E0064900F004
:1009B000070208684FF6FF03184040EA0220034A86
:1009C00010430860704700000CED00E00000FA05DD
:1009D0002DE9F05FDFF8FCA104460F46DAF80000CD
:1009E000DFF8F48100F00F017B4807F0FF0941F2C6
:1009F000883508F10808B94262D28AF80090DAF81E
:100A0000001001F00F01B9427ED12178890707D586
:100A1000D8F80020A36822F0F0021A43C8F800209A
:100A20002178C9072ED0616801291AD002291BD06C
:100A3000032919D000688007002865DAD8F800007B
:100A4000464620F003000843C8F80000FFF74AFFBD
:100A500007466068012810D002281AD003281ED04B
:100A600029E000688003E7E700688001E4E700BF51
:100A7000FFF738FFC01BA84259D83068C0F3810087
:100A80000128F5D189E000BFFFF72CFFC01BA84269
:100A90004DD83068C0F381000228F5D17DE0306880
:100AA000FFF720FFC01BA842F9D940E0FFF71AFF6B
:100AB000C01BA8423BD8306810F00C0FF6D16CE098
:100AC0002178890707D5D8F80020A36822F0F00222
:100AD0001A43C8F800202178C9074CD06168012961
:100AE00028D0022929D0032927D0006880070028B0
:100AF00049DAD8F8002022F003020A43C8F800209F
:100B0000FFF7F0FE064600E03DE0606801281DD0DA
:100B1000022829D0032838D0AB464546286810F073
:100B20000C0F28D0FFF7DEFE811B5945F6D90320B4
:100B3000BDE8F09F00688003D9E700688001D6E730
:100B4000FFF7D0FE811B594502D9F0E7AB46454679
:100B50002868C0F381000128F2D10CE0FFF7C2FE43
:100B6000811B594502D9E2E7AB4645462868C0F3E8
:100B700081000228F2D18AF80090DAF8000000F033
:100B80000F00B84209D00120D2E744462068FFF7A1
:100B9000A9FE801BA842F9D9C9E72078400707D5EC
:100BA000D8F80010E26821F4E0511143C8F80010B1
:100BB0002078000708D5D8F80010226921F4604198
:100BC00041EAC201C8F800100020FFF7B3FE002080
:100BD000AEE70000003C02400038024010B500F0D3
:100BE00017F808490968F02292FAA2F201F0F00120
:100BF000B2FA82F2D140044A515CC840034908600D
:100C000010BD000008380240241200080400002033
:100C100030B51948006810F00C01184812D0184C73
:100C200004290ED008290DD11349091F0A6802F0C2
:100C30003F030A68550247F6C07204D5B4FBF3F0CF
:100C400003E0204630BDB0FBF3F00B6809681340A9
:100C500092FAA2F2B2FA82F2D34058434FF44032F1
:100C600092FAA2F201F44031B2FA82F2D140491C68
:100C70004900B0FBF1F030BD083802400024F40018
:100C800040787D012DE9F84F04460078DFF81CA379
:100C9000C74DC0074FF000064BD0DAF800105046A1
:100CA000C1F38101012908D00068C0F38100022846
:100CB0000AD1281D0068400206D52868800338D56F
:100CC0006068002871D034E0DFF8E49209F102098D
:100CD00089F80060FFF706FE804641F2883705E09C
:100CE000FFF700FEA0EB0800B8427DD8286880031B
:100CF000F6D4207989F80000606868B1FFF7F2FD4A
:100D0000804605E0FFF7EEFDA0EB0800B842ECD806
:100D100028688003F6D50CE0FFF7E4FD804605E087
:100D2000FFF7E0FDA0EB0800B842DED8286880039A
:100D3000F6D420789F4F80074FF0010B45D5DAF8A5
:100D40000010504611F00C0F4FF0F80909D0006860
:100D5000C0F3810002280BD19448001F00684002B4
:100D600006D42868800714D5E06801281DD110E05A
:100D7000E068D8B1C7F800B0FFF7B4FD804605E0E1
:100D8000FFF7B0FDA0EB08006428AED82868800704
:100D9000F6D5286899FAA9F22169B2FA82F220F010
:100DA000F8009140084328600FE0FCE03E60FFF748
:100DB00099FD804606E000BFFFF794FDA0EB080018
:100DC000642811D828688007F6D42078000729D530
:100DD000DFF8D8917848616909F16C0999B1C0F8D8
:100DE00000B0FFF77FFD00E086E0804606E000BF30
:100DF000FFF778FDA0EB080064287DD8D9F8000043
:100E00008007F5D50EE00660FFF76CFD804605E033
:100E1000FFF768FDA0EB080064286DD8D9F8000042
:100E20008007F5D4207840075AD5604838300168EB
:100E300041F0805101600068DFF8809100F080503F
:100E40000090D9F8001041F48071C9F80010FFF744
:100E500049FD804606E000BFFFF744FDA0EB080017
:100E6000642849D8D9F80000C005F5D5DFF83C81E1
:100E700008F1680888F80060FFF734FD41F288390E
:100E8000009005E0FFF72EFD0099411A494533D83F
:100E9000D8F800008007F5D4207A88F80000A06810
:100EA00078B1FFF71FFD009006E000BFFFF71AFDC5
:100EB0000099411A49456ED8D8F800008007F5D549
:100EC0000EE0FFF70FFD009006E000BFFFF70AFD00
:100ED0000099411A49455ED8D8F800008007F5D43A
:100EE000A069E8B3DAF80010C1F3810102295AD0F1
:100EF00002283E6605D000E04DE0FFF7F3FC044613
:100F00004CE0FFF7EFFC064605E000BFFFF7EAFC08
:100F1000801B64283FD828688001F7D4D4E90701F2
:100F2000084347F6C07292FAA2F2616AB2FA82F2FC
:100F30009140A26A4FF0FF3303EB52024FF440336B
:100F400093FAA3F3B3FA83F39A40114308434FF0A3
:100F5000706292FAA2F2E16AB2FA82F2914000E083
:100F60001FE008431149091F0860C7F860B0FFF788
:100F7000B9FC044605E000BFFFF7B4FC001B642881
:100F800009D828688001F7D50BE000BFFFF7AAFC5D
:100F9000001B642802D90320BDE8F88F286880016F
:100FA000F4D40020F8E70120F6E7000008380240FA
:100FB0000038024000004742800E47420070004067
:100FC0004FF0E0210428086903D020F004000861F4
:100FD000704740F00400FAE7704710B5401EB0F1CA
:100FE000807F01D3012010BD4FF0E02460610F210C
:100FF000601700F039F80020A06107202061002070
:1010000010BD10B5FFF7E8FF10BD000070B5144823
:101010008CB0016841F010010160016801F010011D
:101020000A91016841F0020101600068012400F0AA
:1010300002000A902020CDE900040A4E03256946EB
:101040003046CDE90245FFF763FB4020CDE90504BA
:1010500005A93046CDE90745FFF75AFB0CB070BD36
:1010600030380240001002400907090E002806DA55
:1010700000F00F0000F1E02080F8141D704700F12F
:10108000E02080F80014704710B5FFF731FCBDE890
:101090001040FFF7B6BF000030B51F4893B001689D
:1010A00041F080510160006800F0805011901B48B1
:1010B000016821F4804101600068022400F480404E
:1010C00011900120039010200490009400250694B4
:1010D0000820CDE90750D820099006200A90042066
:1010E0000B906846FFF7CEFD0CA9052081E8310082
:1010F000E002CDE90F0502210CA8FFF769FCFFF71C
:101100006DFD4FF47A71B0FBF1F0FFF766FF04203C
:10111000FFF756FF13B030BD40380240007000406A
:101120001048016841F4700101600F48016841F006
:10113000010101600C4A00210832116002680B4B6A
:101140001A400260031D0A4A1A60026822F48022D3
:10115000026005480C300160024958068039086079
:101160007047000088ED00E000380240FFFFF6FE07
:101170001030002402E008C8121F08C1002AFAD16A
:1011800070477047002001E001C1121F002AFBD107
:10119000704710B50446FA2000F00EF8FA2000F06F
:1011A0000BF8FA2000F008F8FA2000F005F8641EA9
:1011B0002404240CEFD110BD062100E000BF491E1D
:1011C00089B2FBD2401E0004000CF5D1704700002C
:1011D000FFF796FBFFF760FFFFF718FF0F4C0122A8
:1011E00020212046FFF779FB012240212046FFF70E
:1011F00074FB0B4DFFF742FAFFF7ECF940B1012207
:1012000020212046FFF769FBC820FFF7C2FFF1E766
:10121000FFF756F985ED000AF6E7000000100240DE
:10122000000000200000000001020304010203048A
:101230000607080954120008000000200C000000F6
:1012400074110008601200080C0000200404000063
:1012500084110008000000000024F40000000000D9
:040000050800018965
:00000001FF
